{
  "_format": "hh-sol-artifact-1",
  "contractName": "Web3Mint",
  "sourceName": "contracts/Web3Mint.sol",
  "abi": [
    {
      "inputs": [],
      "stateMutability": "nonpayable",
      "type": "constructor"
    },
    {
      "anonymous": false,
      "inputs": [
        {
          "indexed": true,
          "internalType": "address",
          "name": "owner",
          "type": "address"
        },
        {
          "indexed": true,
          "internalType": "address",
          "name": "approved",
          "type": "address"
        },
        {
          "indexed": true,
          "internalType": "uint256",
          "name": "tokenId",
          "type": "uint256"
        }
      ],
      "name": "Approval",
      "type": "event"
    },
    {
      "anonymous": false,
      "inputs": [
        {
          "indexed": true,
          "internalType": "address",
          "name": "owner",
          "type": "address"
        },
        {
          "indexed": true,
          "internalType": "address",
          "name": "operator",
          "type": "address"
        },
        {
          "indexed": false,
          "internalType": "bool",
          "name": "approved",
          "type": "bool"
        }
      ],
      "name": "ApprovalForAll",
      "type": "event"
    },
    {
      "anonymous": false,
      "inputs": [
        {
          "indexed": true,
          "internalType": "address",
          "name": "from",
          "type": "address"
        },
        {
          "indexed": true,
          "internalType": "address",
          "name": "to",
          "type": "address"
        },
        {
          "indexed": true,
          "internalType": "uint256",
          "name": "tokenId",
          "type": "uint256"
        }
      ],
      "name": "Transfer",
      "type": "event"
    },
    {
      "inputs": [
        {
          "internalType": "address",
          "name": "to",
          "type": "address"
        },
        {
          "internalType": "uint256",
          "name": "tokenId",
          "type": "uint256"
        }
      ],
      "name": "approve",
      "outputs": [],
      "stateMutability": "nonpayable",
      "type": "function"
    },
    {
      "inputs": [
        {
          "internalType": "address",
          "name": "owner",
          "type": "address"
        }
      ],
      "name": "balanceOf",
      "outputs": [
        {
          "internalType": "uint256",
          "name": "",
          "type": "uint256"
        }
      ],
      "stateMutability": "view",
      "type": "function"
    },
    {
      "inputs": [
        {
          "internalType": "uint256",
          "name": "tokenId",
          "type": "uint256"
        }
      ],
      "name": "getApproved",
      "outputs": [
        {
          "internalType": "address",
          "name": "",
          "type": "address"
        }
      ],
      "stateMutability": "view",
      "type": "function"
    },
    {
      "inputs": [
        {
          "internalType": "address",
          "name": "owner",
          "type": "address"
        },
        {
          "internalType": "address",
          "name": "operator",
          "type": "address"
        }
      ],
      "name": "isApprovedForAll",
      "outputs": [
        {
          "internalType": "bool",
          "name": "",
          "type": "bool"
        }
      ],
      "stateMutability": "view",
      "type": "function"
    },
    {
      "inputs": [
        {
          "internalType": "string",
          "name": "name",
          "type": "string"
        },
        {
          "internalType": "string",
          "name": "imageURI",
          "type": "string"
        }
      ],
      "name": "mintIpfsNFT",
      "outputs": [],
      "stateMutability": "nonpayable",
      "type": "function"
    },
    {
      "inputs": [],
      "name": "name",
      "outputs": [
        {
          "internalType": "string",
          "name": "",
          "type": "string"
        }
      ],
      "stateMutability": "view",
      "type": "function"
    },
    {
      "inputs": [
        {
          "internalType": "uint256",
          "name": "tokenId",
          "type": "uint256"
        }
      ],
      "name": "ownerOf",
      "outputs": [
        {
          "internalType": "address",
          "name": "",
          "type": "address"
        }
      ],
      "stateMutability": "view",
      "type": "function"
    },
    {
      "inputs": [
        {
          "internalType": "address",
          "name": "from",
          "type": "address"
        },
        {
          "internalType": "address",
          "name": "to",
          "type": "address"
        },
        {
          "internalType": "uint256",
          "name": "tokenId",
          "type": "uint256"
        }
      ],
      "name": "safeTransferFrom",
      "outputs": [],
      "stateMutability": "nonpayable",
      "type": "function"
    },
    {
      "inputs": [
        {
          "internalType": "address",
          "name": "from",
          "type": "address"
        },
        {
          "internalType": "address",
          "name": "to",
          "type": "address"
        },
        {
          "internalType": "uint256",
          "name": "tokenId",
          "type": "uint256"
        },
        {
          "internalType": "bytes",
          "name": "data",
          "type": "bytes"
        }
      ],
      "name": "safeTransferFrom",
      "outputs": [],
      "stateMutability": "nonpayable",
      "type": "function"
    },
    {
      "inputs": [
        {
          "internalType": "address",
          "name": "operator",
          "type": "address"
        },
        {
          "internalType": "bool",
          "name": "approved",
          "type": "bool"
        }
      ],
      "name": "setApprovalForAll",
      "outputs": [],
      "stateMutability": "nonpayable",
      "type": "function"
    },
    {
      "inputs": [
        {
          "internalType": "bytes4",
          "name": "interfaceId",
          "type": "bytes4"
        }
      ],
      "name": "supportsInterface",
      "outputs": [
        {
          "internalType": "bool",
          "name": "",
          "type": "bool"
        }
      ],
      "stateMutability": "view",
      "type": "function"
    },
    {
      "inputs": [],
      "name": "symbol",
      "outputs": [
        {
          "internalType": "string",
          "name": "",
          "type": "string"
        }
      ],
      "stateMutability": "view",
      "type": "function"
    },
    {
      "inputs": [
        {
          "internalType": "uint256",
          "name": "_tokenId",
          "type": "uint256"
        }
      ],
      "name": "tokenURI",
      "outputs": [
        {
          "internalType": "string",
          "name": "",
          "type": "string"
        }
      ],
      "stateMutability": "view",
      "type": "function"
    },
    {
      "inputs": [
        {
          "internalType": "address",
          "name": "from",
          "type": "address"
        },
        {
          "internalType": "address",
          "name": "to",
          "type": "address"
        },
        {
          "internalType": "uint256",
          "name": "tokenId",
          "type": "uint256"
        }
      ],
      "name": "transferFrom",
      "outputs": [],
      "stateMutability": "nonpayable",
      "type": "function"
    },
    {
      "inputs": [],
      "name": "viewOfMinted",
      "outputs": [
        {
          "components": [
            {
              "internalType": "uint256",
              "name": "mint_max",
              "type": "uint256"
            },
            {
              "internalType": "uint256",
              "name": "count",
              "type": "uint256"
            }
          ],
          "internalType": "struct Web3Mint.NumberOfMinted",
          "name": "",
          "type": "tuple"
        }
      ],
      "stateMutability": "view",
      "type": "function"
    }
  ],
  "bytecode": "0x6080604052600b60075560006008553480156200001b57600080fd5b506040518060400160405280600381526020017f4e465400000000000000000000000000000000000000000000000000000000008152506040518060400160405280600381526020017f6e66740000000000000000000000000000000000000000000000000000000000815250816000908162000099919062000445565b508060019081620000ab919062000445565b505050620000f96040518060400160405280601881526020017f54686973206973206d79204e465420636f6e74726163742e0000000000000000815250620000ff60201b62000b441760201c565b620005df565b6200019f81604051602401620001169190620005bb565b6040516020818303038152906040527f41304fac000000000000000000000000000000000000000000000000000000007bffffffffffffffffffffffffffffffffffffffffffffffffffffffff19166020820180517bffffffffffffffffffffffffffffffffffffffffffffffffffffffff8381831617835250505050620001a260201b60201c565b50565b60008151905060006a636f6e736f6c652e6c6f679050602083016000808483855afa5050505050565b600081519050919050565b7f4e487b7100000000000000000000000000000000000000000000000000000000600052604160045260246000fd5b7f4e487b7100000000000000000000000000000000000000000000000000000000600052602260045260246000fd5b600060028204905060018216806200024d57607f821691505b60208210810362000263576200026262000205565b5b50919050565b60008190508160005260206000209050919050565b60006020601f8301049050919050565b600082821b905092915050565b600060088302620002cd7fffffffffffffffffffffffffffffffffffffffffffffffffffffffffffffffff826200028e565b620002d986836200028e565b95508019841693508086168417925050509392505050565b6000819050919050565b6000819050919050565b600062000326620003206200031a84620002f1565b620002fb565b620002f1565b9050919050565b6000819050919050565b620003428362000305565b6200035a62000351826200032d565b8484546200029b565b825550505050565b600090565b6200037162000362565b6200037e81848462000337565b505050565b5b81811015620003a6576200039a60008262000367565b60018101905062000384565b5050565b601f821115620003f557620003bf8162000269565b620003ca846200027e565b81016020851015620003da578190505b620003f2620003e9856200027e565b83018262000383565b50505b505050565b600082821c905092915050565b60006200041a60001984600802620003fa565b1980831691505092915050565b600062000435838362000407565b9150826002028217905092915050565b6200045082620001cb565b67ffffffffffffffff8111156200046c576200046b620001d6565b5b62000478825462000234565b62000485828285620003aa565b600060209050601f831160018114620004bd5760008415620004a8578287015190505b620004b4858262000427565b86555062000524565b601f198416620004cd8662000269565b60005b82811015620004f757848901518255600182019150602085019450602081019050620004d0565b8683101562000517578489015162000513601f89168262000407565b8355505b6001600288020188555050505b505050505050565b600082825260208201905092915050565b60005b838110156200055d57808201518184015260208101905062000540565b60008484015250505050565b6000601f19601f8301169050919050565b60006200058782620001cb565b6200059381856200052c565b9350620005a58185602086016200053d565b620005b08162000569565b840191505092915050565b60006020820190508181036000830152620005d781846200057a565b905092915050565b6133a680620005ef6000396000f3fe608060405234801561001057600080fd5b50600436106100f55760003560e01c806370a0823111610097578063c87b56dd11610066578063c87b56dd14610282578063e985e9c5146102b2578063eb00195d146102e2578063ede5018b146102fe576100f5565b806370a08231146101fc57806395d89b411461022c578063a22cb4651461024a578063b88d4fde14610266576100f5565b8063095ea7b3116100d3578063095ea7b31461017857806323b872dd1461019457806342842e0e146101b05780636352211e146101cc576100f5565b806301ffc9a7146100fa57806306fdde031461012a578063081812fc14610148575b600080fd5b610114600480360381019061010f9190611e56565b61031c565b6040516101219190611e9e565b60405180910390f35b6101326103fe565b60405161013f9190611f49565b60405180910390f35b610162600480360381019061015d9190611fa1565b610490565b60405161016f919061200f565b60405180910390f35b610192600480360381019061018d9190612056565b6104d6565b005b6101ae60048036038101906101a99190612096565b6105ed565b005b6101ca60048036038101906101c59190612096565b61064d565b005b6101e660048036038101906101e19190611fa1565b61066d565b6040516101f3919061200f565b60405180910390f35b610216600480360381019061021191906120e9565b6106f3565b6040516102239190612125565b60405180910390f35b6102346107aa565b6040516102419190611f49565b60405180910390f35b610264600480360381019061025f919061216c565b61083c565b005b610280600480360381019061027b91906122e1565b610852565b005b61029c60048036038101906102979190611fa1565b6108b4565b6040516102a99190611f49565b60405180910390f35b6102cc60048036038101906102c79190612364565b610964565b6040516102d99190611e9e565b60405180910390f35b6102fc60048036038101906102f79190612445565b6109f8565b005b610306610ac0565b60405161031391906124fb565b60405180910390f35b60007f80ac58cd000000000000000000000000000000000000000000000000000000007bffffffffffffffffffffffffffffffffffffffffffffffffffffffff1916827bffffffffffffffffffffffffffffffffffffffffffffffffffffffff191614806103e757507f5b5e139f000000000000000000000000000000000000000000000000000000007bffffffffffffffffffffffffffffffffffffffffffffffffffffffff1916827bffffffffffffffffffffffffffffffffffffffffffffffffffffffff1916145b806103f757506103f682610bdd565b5b9050919050565b60606000805461040d90612545565b80601f016020809104026020016040519081016040528092919081815260200182805461043990612545565b80156104865780601f1061045b57610100808354040283529160200191610486565b820191906000526020600020905b81548152906001019060200180831161046957829003601f168201915b5050505050905090565b600061049b82610c47565b6004600083815260200190815260200160002060009054906101000a900473ffffffffffffffffffffffffffffffffffffffff169050919050565b60006104e18261066d565b90508073ffffffffffffffffffffffffffffffffffffffff168373ffffffffffffffffffffffffffffffffffffffff1603610551576040517f08c379a0000000000000000000000000000000000000000000000000000000008152600401610548906125e8565b60405180910390fd5b8073ffffffffffffffffffffffffffffffffffffffff16610570610c92565b73ffffffffffffffffffffffffffffffffffffffff16148061059f575061059e81610599610c92565b610964565b5b6105de576040517f08c379a00000000000000000000000000000000000000000000000000000000081526004016105d59061267a565b60405180910390fd5b6105e88383610c9a565b505050565b6105fe6105f8610c92565b82610d53565b61063d576040517f08c379a00000000000000000000000000000000000000000000000000000000081526004016106349061270c565b60405180910390fd5b610648838383610de8565b505050565b61066883838360405180602001604052806000815250610852565b505050565b600080610679836110e1565b9050600073ffffffffffffffffffffffffffffffffffffffff168173ffffffffffffffffffffffffffffffffffffffff16036106ea576040517f08c379a00000000000000000000000000000000000000000000000000000000081526004016106e190612778565b60405180910390fd5b80915050919050565b60008073ffffffffffffffffffffffffffffffffffffffff168273ffffffffffffffffffffffffffffffffffffffff1603610763576040517f08c379a000000000000000000000000000000000000000000000000000000000815260040161075a9061280a565b60405180910390fd5b600360008373ffffffffffffffffffffffffffffffffffffffff1673ffffffffffffffffffffffffffffffffffffffff168152602001908152602001600020549050919050565b6060600180546107b990612545565b80601f01602080910402602001604051908101604052809291908181526020018280546107e590612545565b80156108325780601f1061080757610100808354040283529160200191610832565b820191906000526020600020905b81548152906001019060200180831161081557829003601f168201915b5050505050905090565b61084e610847610c92565b838361111e565b5050565b61086361085d610c92565b83610d53565b6108a2576040517f08c379a00000000000000000000000000000000000000000000000000000000081526004016108999061270c565b60405180910390fd5b6108ae8484848461128a565b50505050565b60606000610934600684815481106108cf576108ce61282a565b5b90600052602060002090600202016000016108e9856112e6565b600686815481106108fd576108fc61282a565b5b906000526020600020906002020160010160405160200161092093929190612a83565b6040516020818303038152906040526113b4565b90506000816040516020016109499190612b2c565b60405160208183030381529060405290508092505050919050565b6000600560008473ffffffffffffffffffffffffffffffffffffffff1673ffffffffffffffffffffffffffffffffffffffff16815260200190815260200160002060008373ffffffffffffffffffffffffffffffffffffffff1673ffffffffffffffffffffffffffffffffffffffff16815260200190815260200160002060009054906101000a900460ff16905092915050565b6000610a04600961154b565b9050610a103382611559565b600660405180604001604052808581526020018481525090806001815401808255809150506001900390600052602060002090600202016000909190919091506000820151816000019081610a659190612ce5565b506020820151816001019081610a7b9190612ce5565b505050610aa160405180606001604052806025815260200161330c602591398233611577565b610aab6009611616565b610ab5600961154b565b600881905550505050565b610ac8611dd0565b6000604051806040016040528060075481526020016008548152509050610b236040518060400160405280601581526020017f7661726961626c6520696e20636f6e7472616374200000000000000000000000815250610b44565b610b30816000015161162c565b610b3d816020015161162c565b8091505090565b610bda81604051602401610b589190611f49565b6040516020818303038152906040527f41304fac000000000000000000000000000000000000000000000000000000007bffffffffffffffffffffffffffffffffffffffffffffffffffffffff19166020820180517bffffffffffffffffffffffffffffffffffffffffffffffffffffffff83818316178352505050506116c5565b50565b60007f01ffc9a7000000000000000000000000000000000000000000000000000000007bffffffffffffffffffffffffffffffffffffffffffffffffffffffff1916827bffffffffffffffffffffffffffffffffffffffffffffffffffffffff1916149050919050565b610c50816116ee565b610c8f576040517f08c379a0000000000000000000000000000000000000000000000000000000008152600401610c8690612778565b60405180910390fd5b50565b600033905090565b816004600083815260200190815260200160002060006101000a81548173ffffffffffffffffffffffffffffffffffffffff021916908373ffffffffffffffffffffffffffffffffffffffff160217905550808273ffffffffffffffffffffffffffffffffffffffff16610d0d8361066d565b73ffffffffffffffffffffffffffffffffffffffff167f8c5be1e5ebec7d5bd14f71427d1e84f3dd0314c0f7b2291e5b200ac8c7c3b92560405160405180910390a45050565b600080610d5f8361066d565b90508073ffffffffffffffffffffffffffffffffffffffff168473ffffffffffffffffffffffffffffffffffffffff161480610da15750610da08185610964565b5b80610ddf57508373ffffffffffffffffffffffffffffffffffffffff16610dc784610490565b73ffffffffffffffffffffffffffffffffffffffff16145b91505092915050565b8273ffffffffffffffffffffffffffffffffffffffff16610e088261066d565b73ffffffffffffffffffffffffffffffffffffffff1614610e5e576040517f08c379a0000000000000000000000000000000000000000000000000000000008152600401610e5590612e29565b60405180910390fd5b600073ffffffffffffffffffffffffffffffffffffffff168273ffffffffffffffffffffffffffffffffffffffff1603610ecd576040517f08c379a0000000000000000000000000000000000000000000000000000000008152600401610ec490612ebb565b60405180910390fd5b610eda838383600161172f565b8273ffffffffffffffffffffffffffffffffffffffff16610efa8261066d565b73ffffffffffffffffffffffffffffffffffffffff1614610f50576040517f08c379a0000000000000000000000000000000000000000000000000000000008152600401610f4790612e29565b60405180910390fd5b6004600082815260200190815260200160002060006101000a81549073ffffffffffffffffffffffffffffffffffffffff02191690556001600360008573ffffffffffffffffffffffffffffffffffffffff1673ffffffffffffffffffffffffffffffffffffffff168152602001908152602001600020600082825403925050819055506001600360008473ffffffffffffffffffffffffffffffffffffffff1673ffffffffffffffffffffffffffffffffffffffff16815260200190815260200160002060008282540192505081905550816002600083815260200190815260200160002060006101000a81548173ffffffffffffffffffffffffffffffffffffffff021916908373ffffffffffffffffffffffffffffffffffffffff160217905550808273ffffffffffffffffffffffffffffffffffffffff168473ffffffffffffffffffffffffffffffffffffffff167fddf252ad1be2c89b69c2b068fc378daa952ba7f163c4a11628f55a4df523b3ef60405160405180910390a46110dc8383836001611855565b505050565b60006002600083815260200190815260200160002060009054906101000a900473ffffffffffffffffffffffffffffffffffffffff169050919050565b8173ffffffffffffffffffffffffffffffffffffffff168373ffffffffffffffffffffffffffffffffffffffff160361118c576040517f08c379a000000000000000000000000000000000000000000000000000000000815260040161118390612f27565b60405180910390fd5b80600560008573ffffffffffffffffffffffffffffffffffffffff1673ffffffffffffffffffffffffffffffffffffffff16815260200190815260200160002060008473ffffffffffffffffffffffffffffffffffffffff1673ffffffffffffffffffffffffffffffffffffffff16815260200190815260200160002060006101000a81548160ff0219169083151502179055508173ffffffffffffffffffffffffffffffffffffffff168373ffffffffffffffffffffffffffffffffffffffff167f17307eab39ab6107e8899845ad3d59bd9653f200f220920489ca2b5937696c318360405161127d9190611e9e565b60405180910390a3505050565b611295848484610de8565b6112a18484848461185b565b6112e0576040517f08c379a00000000000000000000000000000000000000000000000000000000081526004016112d790612fb9565b60405180910390fd5b50505050565b6060600060016112f5846119e2565b01905060008167ffffffffffffffff811115611314576113136121b6565b5b6040519080825280601f01601f1916602001820160405280156113465781602001600182028036833780820191505090505b509050600082602001820190505b6001156113a9578080600190039150507f3031323334353637383961626364656600000000000000000000000000000000600a86061a8153600a858161139d5761139c612fd9565b5b04945060008503611354575b819350505050919050565b6060600082519050600081036113dc5760405180602001604052806000815250915050611546565b600060036002836113ed9190613037565b6113f7919061306b565b6004611403919061309c565b905060006020826114149190613037565b67ffffffffffffffff81111561142d5761142c6121b6565b5b6040519080825280601f01601f19166020018201604052801561145f5781602001600182028036833780820191505090505b5090506000604051806060016040528060408152602001613331604091399050600181016020830160005b868110156115035760038101905062ffffff818a015116603f8160121c168401518060081b905060ff603f83600c1c1686015116810190508060081b905060ff603f8360061c1686015116810190508060081b905060ff603f831686015116810190508060e01b9050808452600484019350505061148a565b50600386066001811461151d576002811461152d57611538565b613d3d60f01b6002830352611538565b603d60f81b60018303525b508484525050819450505050505b919050565b600081600001549050919050565b611573828260405180602001604052806000815250611b35565b5050565b61161183838360405160240161158f939291906130de565b6040516020818303038152906040527f1c7ec448000000000000000000000000000000000000000000000000000000007bffffffffffffffffffffffffffffffffffffffffffffffffffffffff19166020820180517bffffffffffffffffffffffffffffffffffffffffffffffffffffffff83818316178352505050506116c5565b505050565b6001816000016000828254019250508190555050565b6116c2816040516024016116409190612125565b6040516020818303038152906040527ff82c50f1000000000000000000000000000000000000000000000000000000007bffffffffffffffffffffffffffffffffffffffffffffffffffffffff19166020820180517bffffffffffffffffffffffffffffffffffffffffffffffffffffffff83818316178352505050506116c5565b50565b60008151905060006a636f6e736f6c652e6c6f679050602083016000808483855afa5050505050565b60008073ffffffffffffffffffffffffffffffffffffffff16611710836110e1565b73ffffffffffffffffffffffffffffffffffffffff1614159050919050565b600181111561184f57600073ffffffffffffffffffffffffffffffffffffffff168473ffffffffffffffffffffffffffffffffffffffff16146117c35780600360008673ffffffffffffffffffffffffffffffffffffffff1673ffffffffffffffffffffffffffffffffffffffff16815260200190815260200160002060008282546117bb919061311c565b925050819055505b600073ffffffffffffffffffffffffffffffffffffffff168373ffffffffffffffffffffffffffffffffffffffff161461184e5780600360008573ffffffffffffffffffffffffffffffffffffffff1673ffffffffffffffffffffffffffffffffffffffff16815260200190815260200160002060008282546118469190613037565b925050819055505b5b50505050565b50505050565b600061187c8473ffffffffffffffffffffffffffffffffffffffff16611b90565b156119d5578373ffffffffffffffffffffffffffffffffffffffff1663150b7a026118a5610c92565b8786866040518563ffffffff1660e01b81526004016118c794939291906131a5565b6020604051808303816000875af192505050801561190357506040513d601f19601f820116820180604052508101906119009190613206565b60015b611985573d8060008114611933576040519150601f19603f3d011682016040523d82523d6000602084013e611938565b606091505b50600081510361197d576040517f08c379a000000000000000000000000000000000000000000000000000000000815260040161197490612fb9565b60405180910390fd5b805181602001fd5b63150b7a0260e01b7bffffffffffffffffffffffffffffffffffffffffffffffffffffffff1916817bffffffffffffffffffffffffffffffffffffffffffffffffffffffff1916149150506119da565b600190505b949350505050565b600080600090507a184f03e93ff9f4daa797ed6e38ed64bf6a1f0100000000000000008310611a40577a184f03e93ff9f4daa797ed6e38ed64bf6a1f0100000000000000008381611a3657611a35612fd9565b5b0492506040810190505b6d04ee2d6d415b85acef81000000008310611a7d576d04ee2d6d415b85acef81000000008381611a7357611a72612fd9565b5b0492506020810190505b662386f26fc100008310611aac57662386f26fc100008381611aa257611aa1612fd9565b5b0492506010810190505b6305f5e1008310611ad5576305f5e1008381611acb57611aca612fd9565b5b0492506008810190505b6127108310611afa576127108381611af057611aef612fd9565b5b0492506004810190505b60648310611b1d5760648381611b1357611b12612fd9565b5b0492506002810190505b600a8310611b2c576001810190505b80915050919050565b611b3f8383611bb3565b611b4c600084848461185b565b611b8b576040517f08c379a0000000000000000000000000000000000000000000000000000000008152600401611b8290612fb9565b60405180910390fd5b505050565b6000808273ffffffffffffffffffffffffffffffffffffffff163b119050919050565b600073ffffffffffffffffffffffffffffffffffffffff168273ffffffffffffffffffffffffffffffffffffffff1603611c22576040517f08c379a0000000000000000000000000000000000000000000000000000000008152600401611c199061327f565b60405180910390fd5b611c2b816116ee565b15611c6b576040517f08c379a0000000000000000000000000000000000000000000000000000000008152600401611c62906132eb565b60405180910390fd5b611c7960008383600161172f565b611c82816116ee565b15611cc2576040517f08c379a0000000000000000000000000000000000000000000000000000000008152600401611cb9906132eb565b60405180910390fd5b6001600360008473ffffffffffffffffffffffffffffffffffffffff1673ffffffffffffffffffffffffffffffffffffffff16815260200190815260200160002060008282540192505081905550816002600083815260200190815260200160002060006101000a81548173ffffffffffffffffffffffffffffffffffffffff021916908373ffffffffffffffffffffffffffffffffffffffff160217905550808273ffffffffffffffffffffffffffffffffffffffff16600073ffffffffffffffffffffffffffffffffffffffff167fddf252ad1be2c89b69c2b068fc378daa952ba7f163c4a11628f55a4df523b3ef60405160405180910390a4611dcc600083836001611855565b5050565b604051806040016040528060008152602001600081525090565b6000604051905090565b600080fd5b600080fd5b60007fffffffff0000000000000000000000000000000000000000000000000000000082169050919050565b611e3381611dfe565b8114611e3e57600080fd5b50565b600081359050611e5081611e2a565b92915050565b600060208284031215611e6c57611e6b611df4565b5b6000611e7a84828501611e41565b91505092915050565b60008115159050919050565b611e9881611e83565b82525050565b6000602082019050611eb36000830184611e8f565b92915050565b600081519050919050565b600082825260208201905092915050565b60005b83811015611ef3578082015181840152602081019050611ed8565b60008484015250505050565b6000601f19601f8301169050919050565b6000611f1b82611eb9565b611f258185611ec4565b9350611f35818560208601611ed5565b611f3e81611eff565b840191505092915050565b60006020820190508181036000830152611f638184611f10565b905092915050565b6000819050919050565b611f7e81611f6b565b8114611f8957600080fd5b50565b600081359050611f9b81611f75565b92915050565b600060208284031215611fb757611fb6611df4565b5b6000611fc584828501611f8c565b91505092915050565b600073ffffffffffffffffffffffffffffffffffffffff82169050919050565b6000611ff982611fce565b9050919050565b61200981611fee565b82525050565b60006020820190506120246000830184612000565b92915050565b61203381611fee565b811461203e57600080fd5b50565b6000813590506120508161202a565b92915050565b6000806040838503121561206d5761206c611df4565b5b600061207b85828601612041565b925050602061208c85828601611f8c565b9150509250929050565b6000806000606084860312156120af576120ae611df4565b5b60006120bd86828701612041565b93505060206120ce86828701612041565b92505060406120df86828701611f8c565b9150509250925092565b6000602082840312156120ff576120fe611df4565b5b600061210d84828501612041565b91505092915050565b61211f81611f6b565b82525050565b600060208201905061213a6000830184612116565b92915050565b61214981611e83565b811461215457600080fd5b50565b60008135905061216681612140565b92915050565b6000806040838503121561218357612182611df4565b5b600061219185828601612041565b92505060206121a285828601612157565b9150509250929050565b600080fd5b600080fd5b7f4e487b7100000000000000000000000000000000000000000000000000000000600052604160045260246000fd5b6121ee82611eff565b810181811067ffffffffffffffff8211171561220d5761220c6121b6565b5b80604052505050565b6000612220611dea565b905061222c82826121e5565b919050565b600067ffffffffffffffff82111561224c5761224b6121b6565b5b61225582611eff565b9050602081019050919050565b82818337600083830152505050565b600061228461227f84612231565b612216565b9050828152602081018484840111156122a05761229f6121b1565b5b6122ab848285612262565b509392505050565b600082601f8301126122c8576122c76121ac565b5b81356122d8848260208601612271565b91505092915050565b600080600080608085870312156122fb576122fa611df4565b5b600061230987828801612041565b945050602061231a87828801612041565b935050604061232b87828801611f8c565b925050606085013567ffffffffffffffff81111561234c5761234b611df9565b5b612358878288016122b3565b91505092959194509250565b6000806040838503121561237b5761237a611df4565b5b600061238985828601612041565b925050602061239a85828601612041565b9150509250929050565b600067ffffffffffffffff8211156123bf576123be6121b6565b5b6123c882611eff565b9050602081019050919050565b60006123e86123e3846123a4565b612216565b905082815260208101848484011115612404576124036121b1565b5b61240f848285612262565b509392505050565b600082601f83011261242c5761242b6121ac565b5b813561243c8482602086016123d5565b91505092915050565b6000806040838503121561245c5761245b611df4565b5b600083013567ffffffffffffffff81111561247a57612479611df9565b5b61248685828601612417565b925050602083013567ffffffffffffffff8111156124a7576124a6611df9565b5b6124b385828601612417565b9150509250929050565b6124c681611f6b565b82525050565b6040820160008201516124e260008501826124bd565b5060208201516124f560208501826124bd565b50505050565b600060408201905061251060008301846124cc565b92915050565b7f4e487b7100000000000000000000000000000000000000000000000000000000600052602260045260246000fd5b6000600282049050600182168061255d57607f821691505b6020821081036125705761256f612516565b5b50919050565b7f4552433732313a20617070726f76616c20746f2063757272656e74206f776e6560008201527f7200000000000000000000000000000000000000000000000000000000000000602082015250565b60006125d2602183611ec4565b91506125dd82612576565b604082019050919050565b60006020820190508181036000830152612601816125c5565b9050919050565b7f4552433732313a20617070726f76652063616c6c6572206973206e6f7420746f60008201527f6b656e206f776e6572206f7220617070726f76656420666f7220616c6c000000602082015250565b6000612664603d83611ec4565b915061266f82612608565b604082019050919050565b6000602082019050818103600083015261269381612657565b9050919050565b7f4552433732313a2063616c6c6572206973206e6f7420746f6b656e206f776e6560008201527f72206f7220617070726f76656400000000000000000000000000000000000000602082015250565b60006126f6602d83611ec4565b91506127018261269a565b604082019050919050565b60006020820190508181036000830152612725816126e9565b9050919050565b7f4552433732313a20696e76616c696420746f6b656e2049440000000000000000600082015250565b6000612762601883611ec4565b915061276d8261272c565b602082019050919050565b6000602082019050818103600083015261279181612755565b9050919050565b7f4552433732313a2061646472657373207a65726f206973206e6f74206120766160008201527f6c6964206f776e65720000000000000000000000000000000000000000000000602082015250565b60006127f4602983611ec4565b91506127ff82612798565b604082019050919050565b60006020820190508181036000830152612823816127e7565b9050919050565b7f4e487b7100000000000000000000000000000000000000000000000000000000600052603260045260246000fd5b600081905092915050565b7f7b226e616d65223a202200000000000000000000000000000000000000000000600082015250565b600061289a600a83612859565b91506128a582612864565b600a82019050919050565b60008190508160005260206000209050919050565b600081546128d281612545565b6128dc8186612859565b945060018216600081146128f7576001811461290c5761293f565b60ff198316865281151582028601935061293f565b612915856128b0565b60005b8381101561293757815481890152600182019150602081019050612918565b838801955050505b50505092915050565b7f202d2d204e465420233a20000000000000000000000000000000000000000000600082015250565b600061297e600b83612859565b915061298982612948565b600b82019050919050565b600061299f82611eb9565b6129a98185612859565b93506129b9818560208601611ed5565b80840191505092915050565b7f222c20226465736372697074696f6e223a2022416e2065706963204e4654222c60008201527f2022696d616765223a2022697066733a2f2f0000000000000000000000000000602082015250565b6000612a21603283612859565b9150612a2c826129c5565b603282019050919050565b7f227d000000000000000000000000000000000000000000000000000000000000600082015250565b6000612a6d600283612859565b9150612a7882612a37565b600282019050919050565b6000612a8e8261288d565b9150612a9a82866128c5565b9150612aa582612971565b9150612ab18285612994565b9150612abc82612a14565b9150612ac882846128c5565b9150612ad382612a60565b9150819050949350505050565b7f646174613a6170706c69636174696f6e2f6a736f6e3b6261736536342c000000600082015250565b6000612b16601d83612859565b9150612b2182612ae0565b601d82019050919050565b6000612b3782612b09565b9150612b438284612994565b915081905092915050565b60006020601f8301049050919050565b600082821b905092915050565b600060088302612b9b7fffffffffffffffffffffffffffffffffffffffffffffffffffffffffffffffff82612b5e565b612ba58683612b5e565b95508019841693508086168417925050509392505050565b6000819050919050565b6000612be2612bdd612bd884611f6b565b612bbd565b611f6b565b9050919050565b6000819050919050565b612bfc83612bc7565b612c10612c0882612be9565b848454612b6b565b825550505050565b600090565b612c25612c18565b612c30818484612bf3565b505050565b5b81811015612c5457612c49600082612c1d565b600181019050612c36565b5050565b601f821115612c9957612c6a816128b0565b612c7384612b4e565b81016020851015612c82578190505b612c96612c8e85612b4e565b830182612c35565b50505b505050565b600082821c905092915050565b6000612cbc60001984600802612c9e565b1980831691505092915050565b6000612cd58383612cab565b9150826002028217905092915050565b612cee82611eb9565b67ffffffffffffffff811115612d0757612d066121b6565b5b612d118254612545565b612d1c828285612c58565b600060209050601f831160018114612d4f5760008415612d3d578287015190505b612d478582612cc9565b865550612daf565b601f198416612d5d866128b0565b60005b82811015612d8557848901518255600182019150602085019450602081019050612d60565b86831015612da25784890151612d9e601f891682612cab565b8355505b6001600288020188555050505b505050505050565b7f4552433732313a207472616e736665722066726f6d20696e636f72726563742060008201527f6f776e6572000000000000000000000000000000000000000000000000000000602082015250565b6000612e13602583611ec4565b9150612e1e82612db7565b604082019050919050565b60006020820190508181036000830152612e4281612e06565b9050919050565b7f4552433732313a207472616e7366657220746f20746865207a65726f2061646460008201527f7265737300000000000000000000000000000000000000000000000000000000602082015250565b6000612ea5602483611ec4565b9150612eb082612e49565b604082019050919050565b60006020820190508181036000830152612ed481612e98565b9050919050565b7f4552433732313a20617070726f766520746f2063616c6c657200000000000000600082015250565b6000612f11601983611ec4565b9150612f1c82612edb565b602082019050919050565b60006020820190508181036000830152612f4081612f04565b9050919050565b7f4552433732313a207472616e7366657220746f206e6f6e20455243373231526560008201527f63656976657220696d706c656d656e7465720000000000000000000000000000602082015250565b6000612fa3603283611ec4565b9150612fae82612f47565b604082019050919050565b60006020820190508181036000830152612fd281612f96565b9050919050565b7f4e487b7100000000000000000000000000000000000000000000000000000000600052601260045260246000fd5b7f4e487b7100000000000000000000000000000000000000000000000000000000600052601160045260246000fd5b600061304282611f6b565b915061304d83611f6b565b925082820190508082111561306557613064613008565b5b92915050565b600061307682611f6b565b915061308183611f6b565b92508261309157613090612fd9565b5b828204905092915050565b60006130a782611f6b565b91506130b283611f6b565b92508282026130c081611f6b565b915082820484148315176130d7576130d6613008565b5b5092915050565b600060608201905081810360008301526130f88186611f10565b90506131076020830185612116565b6131146040830184612000565b949350505050565b600061312782611f6b565b915061313283611f6b565b925082820390508181111561314a57613149613008565b5b92915050565b600081519050919050565b600082825260208201905092915050565b600061317782613150565b613181818561315b565b9350613191818560208601611ed5565b61319a81611eff565b840191505092915050565b60006080820190506131ba6000830187612000565b6131c76020830186612000565b6131d46040830185612116565b81810360608301526131e6818461316c565b905095945050505050565b60008151905061320081611e2a565b92915050565b60006020828403121561321c5761321b611df4565b5b600061322a848285016131f1565b91505092915050565b7f4552433732313a206d696e7420746f20746865207a65726f2061646472657373600082015250565b6000613269602083611ec4565b915061327482613233565b602082019050919050565b600060208201905081810360008301526132988161325c565b9050919050565b7f4552433732313a20746f6b656e20616c7265616479206d696e74656400000000600082015250565b60006132d5601c83611ec4565b91506132e08261329f565b602082019050919050565b60006020820190508181036000830152613304816132c8565b905091905056fe416e204e465420772f20494420257320686173206265656e206d696e74656420746f2025734142434445464748494a4b4c4d4e4f505152535455565758595a6162636465666768696a6b6c6d6e6f707172737475767778797a303132333435363738392b2fa26469706673582212200e21038d1473839b47cdf24d034ba918bbfe66a1770be36352a34b44bc421d8e64736f6c63430008110033",
  "linkReferences": {},
  "deployedLinkReferences": {}
}